:080000000C9433000C9456002F
:100008000C9400000C9400000C9400000C94000068
:100018000C9400000C9400000C9400000C948800D0
:100028000C9400000C9492000C9400000C940000B6
:100038000C9400000C9400000C9400000C94000038
:100048000C9400000C9400000C9400001027E803A6
:1000580064000A0001000010000110000100F8947B
:10006800EE27ECBBF1E0FBBFEBBFE5BFF8E1F1BD6C
:10007800E1BD8DE0A2E0BB27ED938A95E9F780E02A
:1000880094E0A0E6ED930197E9F7EFE5EDBFE4E032
:10009800EEBFC0E6D1E00C941D015D9BFECFE88168
:1000A800ECB9C5C00A921A92FA926A937A938A9323
:1000B8009A93AA93BA93EA93FA93EFB7EA93F5015E
:1000C80031965F01D501EAE0F0E00E94FD01662764
:1000D80077270E949D01D501EAE0F0E00E943502F1
:1000E800662777270E94A6010E94BE01E991EFBF0B
:1000F800F991E991B991A991999189917991699128
:10010800F990199009901895EA93FA93EFB7EA9342
:10011800F30131963F01E6E0E2BF79C0EA93FA9332
:10012800EFB7EA931A931CB1103311F44424552401
:10013800193319F4EFEFF0E02F01EFEFF0E0E415D9
:10014800F50511F00C940A01113309F4AF9A11372F
:1001580009F4AF98123309F4AE9A173709F4AE9838
:10016800133309F4AD9A153609F4AD98143309F42C
:10017800AC9A123709F4AC98153309F4AB9A1437D2
:1001880009F4AB98163309F4AA9A193709F4AA980E
:10019800173309F4A99A153709F4A998183309F4FB
:1001A800A89A193609F4A8981A3719F4EAEFF0E072
:1001B8004F01183719F4E4EFF1E04F01133619F441
:1001C800EEEEF2E04F01163719F4E8EEF3E04F01D6
:1001D800123619F4E2EEF4E04F011E3619F4ECED94
:1001E800F5E04F011D3619F4E6EDF6E04F011A3639
:1001F80019F4E0EDF7E04F011B3619F4EAECF8E0EA
:100208004F011C3619F4E4ECF9E04F011991E9911A
:10021800EFBFF991E9911895E881E7B98BE18A95E3
:10022800F1F7369A349BFECF349AE4B1F5B12196B2
:100238000895E0E0EBBBEABBE1E0E8BBE7BBE0E048
:10024800E5BBEFEFE4BBE0E0E2BBE1BBE3E0E3BF2B
:10025800E0E0E2BFECBFEFBDEEBDEDBDECBDE7BD3C
:10026800E6BDEBBDEABDE9BDE8BDE2BDE5BDE4BD67
:10027800E3BDEBB7E064EBBFE2E0E5BFE0E0E4BF7D
:10028800E0E4EABFE1E0E9BFE0E0EBB9E8E9EAB9B8
:10029800E6E8E0BDE0E0E0BDE3E3E9B9E0E8E8B9BD
:1002A800E0E0E0BFE7B9E3E8E6B9E0E0EDB9E6BFD2
:1002B80078946814790438F0C09B02C0C09801C0D3
:1002C800C09A66247724E0E0EA93A6DF66277727BA
:1002D800E0936001F09361016093620170936301A0
:1002E800A4EFB1E080E090E00E94DD01DF01CB01E6
:1002F800EFEFF3E060E070E00E941002E093640129
:10030800F093650160936601709367010E94C401D0
:100318000E9410020E949D010E94C4010E9438029E
:100328000E94A601EAE0EA93B8DE0E94BE01C1CFAE
:10033800FFCFE0936801F093690160936A017093BD
:100348006B010895E0936C01F0936D0160936E0169
:1003580070936F01E0916801E05DEA930E9451009B
:10036800E0916C01E05DEA930E945100EDE0EA93B0
:100378000C945100E8ECF0E0FA93EA930C94D10164
:10038800A0916401B0916501809166019091670127
:10039800EAE0F0E060E070E00895E991F9913096C4
:1003A80039F080ED97E00197F1F7A8953197C9F7F3
:1003B80008957A9F702D6B9F700DF89F700DE99FBF
:1003C800700D6A9F602D710DFB9F600D711DE89F78
:1003D800600D711D8827FA9FF02D610D781FEB9F26
:1003E800F00D611D781FEA9FE02DF10D681F781F41
:1003F80008950024112490E1AA0FBB1F001C111CB2
:100408000E1A1F0A18F40E0E1F1E01C0A1609A953D
:1004180099F7FD01D00108953F934F935F9300240E
:1004280011244427552730E2AA0FBB1F881F991FA4
:10043800001C111C441F551F0E1A1F0A460B570B90
:1004480028F40E0E1F1E461F571F01C0A1603A95C3
:1004580059F7FD01BC01D001CA015F914F913F914D
:100468000895C7DFFD010895D7DFFD01BC01089598
:00000001FF
